:020000040810E2
:1000000000000C206D8B1008BD8B1008BD8B1008F4
:1000100091871008BD8B100899871008BD8B1008B8
:10002000000000000000000000000000CDBB100830
:10003000BD8B1008000000006DBB100805B810084B
:10004000BD8B1008BD8B1008BD8B1008BD8B100830
:10005000BD8B1008BD8B1008BD8B1008BD8B100820
:10006000BD8B1008BD8B1008BD8B1008BD8B100810
:10007000BD8B1008BD8B1008BD8B1008BD8B100800
:10008000BD8B1008BD8B1008BD8B1008BD8B1008F0
:10009000BD8B1008BD8B1008BD8B1008BD8B1008E0
:1000A000BD8B1008BD8B1008BD8B1008BD8B1008D0
:1000B00000000000A1871008BD871008BD8B100844
:1000C000BD8B1008BD8B1008BD8B1008BD8B1008B0
:1000D000BD8B1008BD8B1008BD8B1008BD8B1008A0
:1000E000BD8B1008BD8B1008BD8B1008BD8B100890
:1000F000BD8B1008BD8B1008BD8B1008BD8B100880
:10010000BD8B1008BD8B1008BD8B1008BD8B10086F
:10011000BD8B1008BD8B1008BD8B1008BD8B10085F
:10012000BD8B1008BD8B1008BD8B1008BD8B10084F
:10013000BD8B1008BD8B1008BD8B1008BD8B10083F
:10014000BD8B1008BD8B1008D9871008BD8B100817
:10015000BD8B1008BD8B1008BD8B1008BD8B10081F
:10016000BD8B1008BD8B1008BD8B1008BD8B10080F
:10017000BD8B1008BD8B1008BD8B1008BD8B1008FF
:10018000BD8B1008BD8B1008BD8B1008BD8B1008EF
:10019000BD8B1008BD8B1008BD8B1008BD8B1008DF
:1001A000BD8B1008BD8B1008BD8B1008BD8B1008CF
:1001B000BD8B100800000000BD8B1008BD8B10081F
:1001C000BD8B100800000000BD8B1008BD8B10080F
:1001D000BD8B1008BD8B1008BD8B1008BD8B10089F
:1001E000BD8B1008BD8B1008BD8B1008BD8B10088F
:1001F0000000000000000000BD8B1008BD8B10083F
:10020000BD8B1008BD8B1008BD8B1008BD8B10086E
:10021000BD8B1008BD8B1008BD8B1008BD8B10085E
:10022000BD8B1008BD8B1008BD8B1008BD8B10084E
:08023000BD8B1008BD8B100806
:1002380010B5054C237833B9044B13B10448AFF318
:1002480000800123237010BD60020420000000001C
:100258003823110808B5034B1BB103490348AFF312
:10026800008008BD00000000640204203823110843
:1002780080F0004002E000BF81F0004142001FBF53
:100288005FEA410392EA030F7FEA226C7FEA236C5C
:100298006AD04FEA1262D2EB1363C1BFD218414051
:1002A80048404140B8BF5B42192B88BF704710F0E7
:1002B800004F40F4000020F07F4018BF404211F08A
:1002C800004F41F4000121F07F4118BF494292EAF2
:1002D800030F3FD0A2F1010241FA03FC10EB0C001E
:1002E800C3F1200301FA03F100F0004302D54942AB
:1002F80060EB4000B0F5000F13D3B0F1807F06D358
:1003080040084FEA310102F10102FE2A51D2B1F14F
:10031800004F40EBC25008BF20F0010040EA030044
:100328007047490040EB0000013A28BFB0F5000FC4
:10033800EDD2B0FA80FCACF1080CB2EB0C0200FA7A
:100348000CF0AABF00EBC25052421843BCBFD040C9
:100358001843704792F0000F81F4000106BF80F443
:1003680000000132013BB5E74FEA41037FEA226C06
:1003780018BF7FEA236C21D092EA030F04D092F0D1
:10038800000F08BF0846704790EA010F1CBF002005
:10039800704712F07F4F04D1400028BF40F0004062
:1003A800704712F100723CBF00F50000704700F082
:1003B800004343F0FE4040F4000070477FEA2262A9
:1003C80016BF08467FEA23630146420206BF5FEA7A
:1003D800412390EA010F40F4800070474FF000037A
:1003E80004E000BF10F0004348BF40425FEA000C41
:1003F80008BF704743F0964301464FF000001CE0E9
:1004080050EA010208BF70474FF000030AE000BF3E
:1004180050EA010208BF704711F0004302D540427C
:1004280061EB41015FEA010C02BF844601460020EE
:1004380043F0B64308BFA3F18053A3F50003BCFA09
:100448008CF2083AA3EBC25310DB01FA02FC6344B6
:1004580000FA02FCC2F12002BCF1004F20FA02F2BD
:1004680043EB020008BF20F00100704702F12002B0
:1004780001FA02FCC2F1200250EA4C0021FA02F211
:1004880043EB020008BF20EADC70704753B94AB951
:10049800002908BF00281CBF4FF0FF314FF0FF3084
:1004A80000F0B2B9ADF1080C6DE904CE00F006F821
:1004B800DDF804E0DDE9022304B070472DE9F04FD0
:1004C8008C46099E04460F46002B48D18A421546A1
:1004D8005ED9B2FA82F33BB1C3F120029F409D403E
:1004E8009C4020FA02F217434FEA154E1FFA85FC8A
:1004F800220CB7FBFEF10EFB117701FB0CF042EA70
:100508000742904207D9AA1801F1FF3702D2904258
:1005180000F258813946121AA4B2B2FBFEF00EFB63
:10052800102200FB0CFC44EA0244A4450BD92C1908
:1005380000F1FF322CBF01270027A44502D9002F64
:1005480000F04381104640EA0140A4EB0C0400216E
:100558001EB1DC400023C6E90043BDE8F08F8B42A2
:1005680006D90EB1C6E9000100210846BDE8F08FA2
:10057800B3FA83F1002951D16345C0F01681824254
:1005880040F213810846002EE7D0C6E90047E4E7A9
:10059800002A00F0AF80B2FA82F3002B40F0C2804C
:1005A8008A1A4FEA154EAFB20121200CB2FBFEFCAD
:1005B8000EFB1C2240EA024207FB0CF090420ED9C7
:1005C800AA180CF1FF382CBF4FF001094FF00009B1
:1005D800904203D9B9F1000F00F0F080C446121A16
:1005E800A4B2B2FBFEF00EFB102200FB07F744EAB0
:1005F8000244A7420ED92C1900F1FF322CBF4FF04C
:10060800010E4FF0000EA74203D9BEF1000F00F013
:10061800D2801046E41B40EA0C4099E7C1F120055E
:100628008B400CFA01F400FA01F922FA05F72CFACA
:1006380005FC8A401F4320FA05F3380C23431FFAB0
:1006480087FE1C0CBCFBF0F800FB18CC44EA0C44F9
:1006580008FB0EFCA4450ED93C1908F1FF3A2CBF43
:100668004FF0010B4FF0000BA44503D9BBF1000F6D
:1006780000F0B880D046A4EB0C041FFA83FCB4FB4E
:10068800F0F300FB134403FB0EFE4CEA0444A645BA
:100698000ED93C1903F1FF302CBF4FF0010C4FF07D
:1006A800000CA64503D9BCF1000F00F09F8003465B
:1006B80043EA0840A4EB0E04A0FB02EC6445734631
:1006C800E04602D307D1F14505D2BEEB02036CEB3D
:1006D800070C0138E0465EB1B9EB030264EB08048D
:1006E80004FA05F522FA01F3CC401D43C6E900548B
:1006F800002132E742082F464B08AC4642EAC17255
:10070800AE46C407110C92B241EA034142EA0142E3
:10071800B1FBF5F1B3FBF5F01F23A2EB0C0241EAA4
:10072800004142E79D40C3F1200299409C402CFAC9
:1007380002FC4FEA154E20FA02F2AFB2BCFBFEF8FB
:100748000A430EFB18CC110C41EA0C4108FB07FCCC
:100758008C4550D9691808F1FF302CBF4FF00109BA
:100768004FF000098C4502D9B9F1000F30D0A1EB48
:100778000C01B1FBFEF808FB07FC0EFB181192B246
:1007880042EA0142624534D2AA1808F1FF312CBF6F
:100798004FF001094FF000096245BED2B9F1000FD0
:1007A800BBD1A8F102012A44B7E7841A6CEB030213
:1007B80001201746E7E62C4402382BE7ACF1020C7F
:1007C8002A440CE702392A44A5E62C440238BAE642
:1007D800A5EB0C0CA8F102006144B1FBFEF808FB84
:1007E80007FCCAE7A8F102083C4444E7023B3C4442
:1007F8005EE7414691E7A1EB0C014046B1FBFEF8EC
:1008080008FB07FCB9E700BF704700BF034613F8B1
:10081800012B002AFBD1181A0138704780B400AFA9
:1008280000BFBD465DF8047B7047000080B485B00A
:1008380000AF78607B6803F00703FB600C4BDB6854
:10084800BB60BA684FF6FF031340BB60FB681A022F
:10085800BB68134343F0BF6343F40033BB60044AEF
:10086800BB68D36000BF1437BD465DF8047B704792
:1008780000ED00E080B400AF044BDB681B0A03F016
:1008880007031846BD465DF8047B704700ED00E09D
:1008980080B483B000AF0346FB7197F90730002B93
:1008A8000BDBFB7903F01F02074997F907305B0957
:1008B800012000FA02F241F8232000BF0C37BD46A0
:1008C8005DF8047B704700BF00E100E080B483B0AE
:1008D80000AF03463960FB7197F90730002B0ADB3C
:1008E8003B68DAB20C4997F907301201D2B20B44CF
:1008F80083F800230AE03B68DAB20849FB7903F081
:100908000F03043B1201D2B20B441A7600BF0C3716
:10091800BD465DF8047B704700E100E000ED00E0B3
:1009280080B489B000AFF860B9607A60FB6803F002
:100938000703FB61FB69C3F10703042B28BF0423EA
:10094800BB61FB690433062B02D9FB69033B00E05A
:1009580000237B614FF0FF32BB6902FA03F3DA43ED
:10096800BB681A407B699A404FF0FF317B6901FAF6
:1009780003F3D9437B680B40134318462437BD461D
:100988005DF8047B704780B582B000AF7860786806
:10099800FFF74CFF00BF0837BD4680BD80B586B065
:1009A80000AF0346B9607A60FB73FFF763FF7861B5
:1009B8007A68B9687869FFF7B3FF024697F90F308C
:1009C80011461846FFF782FF00BF1837BD4680BDA5
:1009D80080B582B000AF0346FB7197F9073018461F
:1009E800FFF756FF00BF0837BD4680BD80B483B00F
:1009F80000AF78607B68013BB3F1807F01D30123AE
:100A08000DE00A4A7B68013B5360084B00229A605C
:100A1800064B1B68054A43F003031360002318467E
:100A28000C37BD465DF8047B704700BF10E000E05E
:100A380080B483B000AF78607B68042B44D801A2EF
:100A480052F823F06F0A10088D0A1008AF0A100830
:100A5800D10A1008610A10081F4B1B681E4A43F090
:100A68000403136031E01C4B1B681B4A23F004038A
:100A780013601A4BD3F8E030184A23F44003C2F845
:100A8800E03022E0144B1B68134A23F00403136080
:100A9800124BD3F8E03023F44003104A43F48003A8
:100AA800C2F8E03011E00C4B1B680B4A23F004033A
:100AB80013600A4BD3F8E03023F44003074A43F4A9
:100AC8000003C2F8E03000E000BF00BF0C37BD46AD
:100AD8005DF8047B704700BF10E000E0000C0246A0
:100AE80080B483B000AF194B1B6803F00403002BDC
:100AF80002D004237B6021E0154BD3F8E03003F4E7
:100B080040033B603B68B3F5000F11D03B68B3F579
:100B1800000F10D83B68002B04D03B68B3F5800F5A
:100B280003D008E000237B6008E001237B6005E038
:100B380002237B6002E000237B6000BF7B681846CD
:100B48000C37BD465DF8047B704700BF10E000E03D
:100B5800000C024680B584B000AF786000F0C6FF94
:100B6800F8607B68002B01D10123F0E07B681B68EB
:100B7800794A934200F09F807B681B68774A9342CA
:100B880000F099807B681B68754A934200F0938057
:100B98007B681B68734A934200F08D807B681B68F2
:100BA800714A934200F087807B681B686F4A9342C2
:100BB80000F081807B681B686D4A93427BD07B681C
:100BC8001B686C4A934276D07B681B686A4A9342DA
:100BD80071D07B681B68694A93426CD07B681B683C
:100BE800674A934267D07B681B68664A934262D023
:100BF8007B681B68644A93425DD07B681B68634AC4
:100C0800934258D07B681B68614A934253D07B68F3
:100C18001B68604A93424ED07B681B685E4A9342C9
:100C280049D07B681B685D4A934244D07B681B6847
:100C38005B4A93423FD07B681B685A4A93423AD03A
:100C48007B681B68584A934235D07B681B68574AB3
:100C5800934230D07B681B68554A93422BD07B68FF
:100C68001B68544A934226D07B681B68524A9342B9
:100C780021D07B681B68514A93421CD07B681B6853
:100C88004F4A934217D07B681B684E4A934212D052
:100C98007B681B684C4A93420DD07B681B684B4AA3
:100CA800934208D07B681B68494A934203D07B680B
:100CB8001B68484A93427B68002283F84C207B6873
:100CC80093F85430DBB2002B0ED17B6800221A66F1
:100CD8007B6800225A667B6800229A667B6800223D
:100CE800DA667B6800221A677B68022283F8542040
:100CF8007B681B685A697B681B6842F006025A6168
:100D08000FE000F0F3FE0246FB68D31A052B08D962
:100D18007B6810229A657B68032283F8542001239C
:100D280015E07B681B685B6903F00103002BE8D1C1
:100D3800786800F0DDFA7B685A6B7B681A657B6817
:100D480000229A657B68012283F854200023184604
:100D58001037BD4680BD00BF500002405000025011
:100D6800D0000240D0000250500102405001025011
:100D7800D0010240D00102505002024050020250FD
:100D8800D0020240D00202505003024050030250E9
:100D9800D0030240D00302505004024050040250D5
:100DA800D0040240D00402505005024050050250C1
:100DB800D0050240D00502505006024050060250AD
:100DC800D0060240D0060250500702405007025099
:100DD800D0070240D007025080B584B000AFF86059
:100DE800B9607A603B60FB68002B01D101234FE0BA
:100DF800FB6893F84C30012B01D1022348E0FB68D3
:100E0800012283F84C20FB6893F85430DBB2012BA5
:100E180036D1FB68022283F85420FB6800229A65C9
:100E28003B687A68B968F86800F03CFAFB681B68A8
:100E38005A69FB681B6842F4BA425A61FB685B6EE8
:100E4800002B07D0FB681B685A69FB681B6842F4D3
:100E580000725A61FB681B6F002B07D0FB681B6888
:100E68005A69FB681B6842F400525A61FB681B68A8
:100E78005A69FB681B6842F001025A61002307E0C7
:100E8800FB6840229A65FB68002283F84C20012306
:100E980018461037BD4680BD80B584B000AF786075
:100EA80000F024FEF8607B68002B01D101236BE081
:100EB8007B6893F85430DBB2022B08D07B68202281
:100EC8009A657B68002283F84C2001235CE07B68EC
:100ED8001B685A697B681B6842F004025A617B6888
:100EE800052283F8542020E000F000FE0246FB684B
:100EF800D31A052B19D97B689B6D43F010027B68C8
:100F08009A657B68032283F854207B681B6D03F085
:100F18008003002B03D07B685B6F01221A737B6808
:100F2800002283F84C2001232EE07B681B681B6994
:100F380003F40053002BD7D07B681B685A697B6881
:100F48001B6842F002025A617B68042283F854202D
:100F58007B681B684FF4FE42DA607B68012283F8E5
:100F680054207B681B6D03F08003002B07D07B683F
:100F78005B6F01221A737B681B6800229A647B6886
:100F8800002283F84C20002318461037BD4680BD48
:100F980080B483B000AF78607B68002B01D1012357
:100FA80019E07B6893F85430DBB2022B04D07B68DD
:100FB80020229A6501230EE07B68042283F85420DE
:100FC8007B681B685B697A68126843F4005343F0D6
:100FD80004035361002318460C37BD465DF8047BB3
:100FE800704780B586B000AF78607B681B6823F4D3
:100FF8007F6323F00F037B617B681B68C3F30B03DC
:10100800503BDB0903F01F03012202FA03F33B61A3
:101018007B69DB683A691340FB60FB68002B00F0D2
:101028003B817B681B681B6903F48063002B11D02C
:101038007B681B685B6903F48063002B0AD07B68BC
:101048001B684FF48062DA607B689B6D43F0010295
:101058007B689A657B681B681B6903F40063002B37
:1010680011D07B681B685B6903F40063002B0AD00E
:101078007B681B684FF40062DA607B689B6D43F005
:1010880002027B689A657B681B681B6903F48053BE
:10109800002B11D07B681B685B6903F48053002B1D
:1010A8000AD07B681B684FF48052DA607B689B6DBE
:1010B80043F004027B689A657B681B681B6903F42C
:1010C8008043002B11D07B681B685B6903F4804365
:1010D800002B0AD07B681B684FF48042DA607B687B
:1010E8009B6D43F008027B689A657B681B681B69E7
:1010F80003F40073002B13D07B681B685B6903F44F
:101108000073002B0CD07B681B684FF40072DA6008
:101118007B685B6E002B03D07B685B6E78689847B2
:101128007B681B681B6903F40053002B4CD07B6859
:101138001B685B6903F40053002B45D07B681B6870
:101148004FF40052DA607B6893F85430DBB2042B1A
:101158002ED17B681B685A697B681B6822F4005291
:101168005A617B681B685A697B681B6842F00202F7
:101178005A617B68012283F854207B681B6D03F059
:101188008003002B07D07B685B6F01221A737B6892
:101198001B6800229A647B68002283F84C207B68D5
:1011A800DB6E002B7AD07B68DB6E7868984775E039
:1011B8007B68052283F854207B681B6F002B03D0C3
:1011C8007B681B6F786898477B681B681B6903F40A
:1011D8008073002B39D07B681B685B6903F48073CC
:1011E800002B32D07B681B6D03F08003002B12D0DC
:1011F8007B681B68DB6F002B16D17B681B689B6CB8
:10120800002B11D17B68012283F854207B685B6F27
:1012180001221A7308E07B681B689B6C002B03D1C2
:101228007B68012283F854207B681B684FF4407266
:10123800DA607B68002283F84C207B681B6E002BE9
:1012480003D07B681B6E786898477B689B6D002B82
:1012580025D07B681B685A697B681B6842F00202CC
:101268005A617B68012283F854207B681B6D03F068
:101278008003002B03D07B685B6F01221A737B68A5
:10128800002283F84C207B689B6E002B07D07B687C
:101298009B6E7868984702E000BF00E000BF1837EF
:1012A800BD4680BD80B485B000AFF860B9607A6093
:1012B8003B60FB681B689B6C1B0C1B043A6891B273
:1012C800FA6812680B439364FB681B684FF4FE428C
:1012D800DA60FB681B68BA68DA64FB681B687A68BE
:1012E8001A6500BF1437BD465DF8047B70470000DF
:1012F80080B485B000AF78607B681B6AFB607B6850
:101308001B685B6923F443017B681B68FA680A431E
:101318005A617B685A697B68DB691A437B681B6979
:101328001A437B689B691343FB607B681B68534ABD
:10133800934200F0A0807B681B68514A934200F0FA
:101348009A807B681B684F4A934200F094807B68C0
:101358001B684D4A934200F08E807B681B684B4A9D
:10136800934200F088807B681B68494A934200F0EA
:1013780082807B681B68474A93427CD07B681B68E5
:10138800454A934277D07B681B68444A934272D09F
:101398007B681B68424A93426DD07B681B68414A50
:1013A800934268D07B681B683F4A934263D07B684E
:1013B8001B683E4A93425ED07B681B683C4A934256
:1013C80059D07B681B683B4A934254D07B681B68A2
:1013D800394A93424FD07B681B68384A93424AD0B7
:1013E8007B681B68364A934245D07B681B68354A40
:1013F800934240D07B681B68334A93423BD07B685A
:101408001B68324A934236D07B681B68304A934245
:1014180031D07B681B682F4A93422CD07B681B68AD
:101428002D4A934227D07B681B682C4A934222D0CE
:101438007B681B682A4A93421DD07B681B68294A2F
:10144800934218D07B681B68274A934213D07B6865
:101458001B68264A93420ED07B681B68244A934235
:1014680009D07B681B68234A934204D07B681B68B9
:10147800214A934242D1012341E000BF500002407B
:1014880050000250D0000240D000025050010240EB
:1014980050010250D0010240D001025050020240D7
:1014A80050020250D0020240D002025050030240C3
:1014B80050030250D0030240D003025050040240AF
:1014C80050040250D0040240D0040250500502409B
:1014D80050050250D0050240D00502505006024087
:1014E80050060250D0060240D00602505007024073
:1014F80050070250D0070240D00702500023002BAB
:1015080012D07B68DA6A7B689B6A013B1B0503F093
:101518007C731A437B685B6A013B1B0103F47C7391
:101528001343FA681343FB607B681B681B6C03F06A
:1015380080217B681B68FA680A431A647B689A688A
:101548007B685B6803F07F031A437B681B6B13435C
:10155800FB607B68DB68B3F5806F40F0B0807B6828
:101568001B68824A934200F0A0807B681B68804A0F
:10157800934200F09A807B681B687E4A934200F091
:1015880094807B681B687C4A934200F08E807B685D
:101598001B687A4A934200F088807B681B68784A07
:1015A800934200F082807B681B68764A93427CD025
:1015B8007B681B68744A934277D07B681B68734AC0
:1015C800934272D07B681B68714A93426DD07B68E6
:1015D8001B68704A934268D07B681B686E4A9342C6
:1015E80063D07B681B686D4A93425ED07B681B683A
:1015F8006B4A934259D07B681B686A4A934254D01D
:101608007B681B68684A93424FD07B681B68674AAF
:1016180093424AD07B681B68654A934245D07B68F1
:101628001B68644A934240D07B681B68624A9342B5
:101638003BD07B681B68614A934236D07B681B6845
:101648005F4A934231D07B681B685E4A93422CD034
:101658007B681B685C4A934227D07B681B685B4A9F
:10166800934222D07B681B68594A93421DD07B68FD
:101678001B68584A934218D07B681B68564A9342A5
:1016880013D07B681B68554A93420ED07B681B6851
:10169800534A934209D07B681B68524A934204D04C
:1016A8007B681B68504A934201D1012300E0002364
:1016B800002B0DD0FB6843F48063FB6008E07B6877
:1016C800DB68B3F5007F03D1FB6843F40073FB606C
:1016D8007B681B685A6C454B13407A681268F96836
:1016E8000B4353647B681B6800229A647B681B6801
:1016F800364A934222D07B681B68354A93421DD0F4
:101708007B681B68334A934218D07B681B68324A4F
:10171800934213D07B681B68304A93420ED07B6893
:101728001B682F4A934209D07B681B682D4A934255
:1017380004D07B681B682C4A934201D1012300E046
:101748000023002B07D07B681B6800225A657B6842
:101758001B6800229A657B681B680022DA6700BF55
:101768001437BD465DF8047B704700BF5000024047
:1017780050000250D0000240D000025050010240F8
:1017880050010250D0010240D001025050020240E4
:1017980050020250D0020240D002025050030240D0
:1017A80050030250D0030240D003025050040240BC
:1017B80050040250D0040240D004025050050240A8
:1017C80050050250D0050240D00502505006024094
:1017D80050060250D0060240D00602505007024080
:1017E80050070250D0070240D00702508031C03C59
:1017F80080B586B000AF78607B68002B03D07B682B
:101808005B6F002B01D1012382E07B6893F8543091
:10181800FB757B681B685B6903F480333B61FB7D68
:10182800012B05D0FB7D022B6AD13B69002B67D0C9
:101838007B6893F85430DBB2012B57D17B6893F85F
:101848004C30012B01D1022362E07B68012283F82E
:101858004C207B68022283F854207B685B6F02224D
:101868001A737B6800229A657B685B6F00221A6195
:101878007B681B685A697B681B6842F4BA425A61E4
:101888007B685B6E002B07D07B681B685A697B6896
:101898001B6842F400725A617B681B6F002B07D0EB
:1018A8007B681B685A697B681B6842F400525A615E
:1018B8007B685B6F1B6807F10C010022184600F07B
:1018C8002BF87B685B6F1B6819467B681A680B0CE2
:1018D8001B0413607B685B6F1B681A464FF6FC732A
:1018E8001340F9687A6812680B43D3677B681B68F2
:1018F8005A697B681B6842F001025A61002307E0BD
:101908007B6840229A657B68002283F84C2001237B
:1019180018461837BD4680BD80B485B000AFF86062
:10192800B9607A60FB681B6A03F00203002B0CD0D5
:10193800BB68002B02D0BB680D4A1A607B68002B7D
:101948000FD07B6807221A600BE0BB68002B02D01F
:10195800BB68084A1A607B68002B02D07B680522A6
:101968001A6000BF1437BD465DF8047B704700BF9E
:10197800000001FE000001F880B500AF124B1B68A3
:10198800114A43F4807313600320FEF7FCFF01F053
:1019980055FF02460D4B1B6A03F00F030C49CB5C45
:1019A80022FA03F30B4A13600420FFF741F80F20D3
:1019B80000F012F80346002B01D0012302E006F0E4
:1019C80011FF0023184680BD00200240000C02468B
:1019D800E82E11080000042080B584B000AF7860BC
:1019E8000023FB60334B1B78002B01D101235CE003
:1019F800314B1B6803F00403042B0CD12F4B1A68DE
:101A08002C4B1B7819464FF47A73B3FBF1F3B2FBF6
:101A1800F3F3FB6037E0FFF763F8B860BB68022BAD
:101A280023D0BB68022B2DD8BB68002B03D0BB6822
:101A3800012B0DD026E0214B1A681E4B1B78194646
:101A48004FF4FA53B3FBF1F3B2FBF3F3FB601AE084
:101A5800184B1B781A464FF47A73B3FBF2F34FF422
:101A6800FA42B2FBF3F3FB600DE0124B1B781A4607
:101A78004FF47A73B3FBF2F34FF40042B2FBF3F383
:101A8800FB6000E000BFF868FEF7B0FF0346002BDC
:101A980001D0012309E0002279684FF0FF30FEF7FA
:101AA8007DFF074A7B681360002318461037BD4640
:101AB80080BD00BF0800042010E000E00000042002
:101AC8000400042080B400AF064B1B781A46064B6E
:101AD8001B681344044A136000BFBD465DF8047BCD
:101AE800704700BF080004207C02042080B400AFC7
:101AF800034B1B681846BD465DF8047B704700BF62
:101B08007C02042080B584B000AF7860FFF7EEFF58
:101B1800B8607B68FB60FB68B3F1FF3F05D00A4BF8
:101B28001B781A46FB681344FB6000BFFFF7DEFF13
:101B38000246BB68D31AFA689A42F7D800BF00BFBA
:101B48001037BD4680BD00BF0800042080B582B0B4
:101B580000AF78607B68002B01D101238DE07B68A2
:101B680093F84130DBB2002B06D17B68002283F862
:101B78004020786806F050FE7B68242283F84120D4
:101B88007B681B681A687B681B6822F001021A6070
:101B98007B685A687B681B6822F070621A617B68F0
:101BA8001B689A687B681B6822F400429A607B680D
:101BB800DB68012B07D17B689A687B681B6842F455
:101BC80000429A6006E07B689A687B681B6842F46A
:101BD80004429A607B68DB68022B08D17B681B682B
:101BE8005A687B681B6842F400625A6007E07B68A9
:101BF8001B685A687B681B6822F400625A607B681D
:101C08001B685B687A68126843F0007343F400430A
:101C180053607B681B68DA687B681B6822F40042A3
:101C2800DA607B681A697B685B6942EA03017B6852
:101C38009B691A027B681B680A43DA607B68D9696A
:101C48007B681A6A7B681B680A431A607B681B6892
:101C58001A687B681B6842F001021A607B680022E0
:101C68005A647B68202283F841207B6800221A632B
:101C78007B68002283F84220002318460837BD46B7
:101C880080BD000080B588B002AFF86008461146F4
:101C98001A4603467B810B463B811346FB80FB6853
:101CA80093F84130DBB2202B40F0F9803B6A002BDF
:101CB80002D0BB8C002B05D1FB684FF400725A642C
:101CC8000123EDE0FB6893F84030012B01D102239A
:101CD800E6E0FB68012283F84020FFF707FF786100
:101CE8007B690093192301224FF40041F86800F042
:101CF80049FA0346002B01D00123D1E0FB682122D9
:101D080083F84120FB68402283F84220FB680022C8
:101D18005A64FB683A6A5A62FB68BA8C5A85FB684F
:101D280000225A63F8883A8979897B690193BB6AEA
:101D380000930346F86800F0ADF90346002B05D080
:101D4800FB68002283F840200123A9E0FB685B8D33
:101D58009BB2FF2B0ED9FB68FF221A85FB681B8DEF
:101D6800DAB27989002300934FF08073F86800F0A5
:101D7800CDFB0FE0FB685B8D9AB2FB681A85FB68A8
:101D88001B8DDAB27989002300934FF00073F8684D
:101D980000F0BCFB7A69B96AF86800F04CFA0346AF
:101DA800002B01D001237BE0FB685B6A1A78FB6893
:101DB8001B689A62FB685B6A5A1CFB685A62FB687C
:101DC8005B8D9BB2013B9AB2FB685A85FB681B8D01
:101DD800013B9AB2FB681A85FB685B8D9BB2002BAE
:101DE80034D0FB681B8D002B30D17B690093BB6A14
:101DF80000228021F86800F0C5F90346002B01D0C5
:101E080001234DE0FB685B8D9BB2FF2B0ED9FB686D
:101E1800FF221A85FB681B8DDAB2798900230093AB
:101E28004FF08073F86800F071FB0FE0FB685B8D82
:101E38009AB2FB681A85FB681B8DDAB27989002390
:101E480000934FF00073F86800F060FBFB685B8D4F
:101E58009BB2002B9ED17A69B96AF86800F032FA11
:101E68000346002B01D001231AE0FB681B682022DF
:101E7800DA61FB681B685968FB681A680A4B0B40F3
:101E88005360FB68202283F84120FB68002283F816
:101E98004220FB68002283F84020002300E0022350
:101EA80018461837BD4680BD00E800FE80B58AB0E8
:101EB80002AFF8607A603B600B467B8100237B6150
:101EC800FB6893F84130DBB2202B40F0DE80FB68E2
:101ED8001B689B6903F40043B3F5004F01D102234B
:101EE800D4E0FB6893F84030012B01D10223CDE008
:101EF800FB68012283F84020FB68242283F84120F4
:101F0800FB6800225A64FB68DB68012B07D17B89D8
:101F1800C3F3090343F0007343F4005306E07B89DD
:101F2800C3F3090343F0007343F42053FA681268BB
:101F38005360FFF7DBFDB861FB681B689B6903F022
:101F48002003202B0CBF01230023DBB2FB77FB68A7
:101F58001B689B6903F01003102B0CBF012300239F
:101F6800DBB2BB7734E03B68B3F1FF3F1AD0FFF731
:101F7800BDFD0246BB69D31A3A689A4202D33B6850
:101F8800002B0FD1FB68202283F84120FB685B6C93
:101F980043F02002FB685A64FB68002283F8402063
:101FA800012373E0FB681B689B6903F02003202B67
:101FB8000CBF01230023DBB2FB77FB681B689B691E
:101FC80003F01003102B0CBF01230023DBB2BB77F7
:101FD800FB7F002B02D1BB7F002BC4D0FB681B68A2
:101FE8009B6903F01003102B24D0BB6900933B6856
:101FF80000222021F86800F0C5F80346002B0BD01A
:10200800FB685B6C042B28D1FB681B682022DA6113
:10201800FB6800225A6420E0FB681B682022DA6112
:10202800FB68202283F84120FB68002283F84020C7
:1020380000232BE0FB681B681022DA61BB69009360
:102048003B6800222021F86800F09CF80346002B2A
:1020580003D1FB681B682022DA617B6901337B614D
:102068007B697A689A423FF64EAFFB68202283F874
:102078004120FB685B6C43F02002FB685A64FB68F4
:10208800002283F84020012300E00223184620376D
:10209800BD4680BD80B586B002AFF86008461146DF
:1020A8001A4603467B810B463B811346FB80FB881F
:1020B800DAB27989204B00934FF08073F86800F00A
:1020C80025FAFA69B969F86800F0B5F80346002BF3
:1020D80001D001232CE0FB88012B05D13B89DAB222
:1020E800FB681B689A6215E03B891B0A9BB2DAB24F
:1020F800FB681B689A62FA69B969F86800F09BF88E
:102108000346002B01D0012312E03B89DAB2FB68B9
:102118001B689A62FB690093BB6900228021F868FA
:1021280000F030F80346002B01D0012300E0002323
:1021380018461037BD4680BD0020008080B483B0AB
:1021480000AF78607B681B689B6903F00203022B71
:1021580003D17B681B6800229A627B681B689B69B5
:1021680003F00103012B07D07B681B689A697B6821
:102178001B6842F001029A6100BF0C37BD465DF84A
:10218800047B704780B584B000AFF860B9603B60ED
:102198001346FB713BE0BA693968F86800F0D6F875
:1021A8000346002B01D0012341E03B68B3F1FF3F18
:1021B8002DD0FFF79BFC0246BB69D31A3A689A42B6
:1021C80002D33B68002B22D1FB681B689A69BB6865
:1021D8001340BA689A420CBF01230023DBB21A46A7
:1021E800FB799A4213D1FB685B6C43F02002FB68D1
:1021F8005A64FB68202283F84120FB68002283F898
:102208004220FB68002283F8402001230FE0FB688E
:102218001B689A69BB681340BA689A420CBF0123CD
:102228000023DBB21A46FB799A42B4D00023184641
:102238001037BD4680BD80B584B000AFF860B96086
:102248007A6033E07A68B968F86800F07FF8034686
:10225800002B01D0012331E0BB68B3F1FF3F25D04B
:10226800FFF744FC02467B68D31ABA689A4202D345
:10227800BB68002B1AD1FB681B689B6903F002033B
:10228800022B13D0FB685B6C43F02002FB685A6496
:10229800FB68202283F84120FB68002283F8422053
:1022A800FB68002283F84020012307E0FB681B68D5
:1022B8009B6903F00203022BC4D100231846103790
:1022C800BD4680BD80B584B000AFF860B9607A6063
:1022D8002FE07A68B968F86800F038F80346002BF0
:1022E80001D001232DE0FFF701FC02467B68D31AD9
:1022F800BA689A4202D3BB68002B1AD1FB681B68E4
:102308009B6903F02003202B13D0FB685B6C43F020
:102318002002FB685A64FB68202283F84120FB688E
:10232800002283F84220FB68002283F84020012322
:1023380007E0FB681B689B6903F02003202BC8D1CA
:10234800002318461037BD4680BD000080B58AB00E
:1023580000AFF860B9607A60002387F82730FB681F
:102368001B689B69BB6100233B627B68FB61BB699F
:1023780003F01003002B68D0FB681B681022DA6199
:1023880049E0BB68B3F1FF3F45D0FFF7AFFB02461A
:10239800FB69D31ABA689A4202D3BB68002B3AD1B8
:1023A800FB681B685B6803F480437B61FB6893F8F8
:1023B8004230FB74FB681B689B6903F40043B3F568
:1023C800004F21D17B69B3F5804F1DD0FB7C202BBA
:1023D8001AD0FB681B685A68FB681B6842F4804285
:1023E8005A60FFF783FBF8610EE0FFF77FFB0246B8
:1023F800FB69D31A192B07D93B6A43F020033B62C8
:10240800012387F8273006E0FB681B689B6903F007
:102418002003202BE9D1FB681B689B6903F020038C
:10242800202B03D097F82730002BAAD097F8273015
:10243800002B03D1FB681B682022DA613B6A43F05A
:1024480004033B62012387F82730FB681B689B69FC
:10245800BB61BB6903F48073002B0BD03B6A43F06C
:1024680001033B62FB681B684FF48072DA61012349
:1024780087F82730BB6903F48063002B0BD03B6AD5
:1024880043F008033B62FB681B684FF48062DA6123
:10249800012387F82730BB6903F40073002B0BD0A6
:1024A8003B6A43F002033B62FB681B684FF400720F
:1024B800DA61012387F8273097F82730002B1CD0E2
:1024C800F868FFF73BFEFB681B685968FB681A68E9
:1024D8000D4B0B405360FB685A6C3B6A1A43FB6810
:1024E8005A64FB68202283F84120FB68002283F8A5
:1024F8004220FB68002283F8402097F827301846CE
:102508002837BD4680BD00BF00E800FE80B487B014
:1025180000AFF8607B600B467B8113467B727B893A
:10252800C3F309027B7A1B0403F47F031A437B6815
:102538001A433B6A134323F000437B61FB681B6823
:102548005A683B6A5B0D03F48061084B0B43DB431D
:1025580002EA0301FB681B687A690A435A6000BFF4
:102568001C37BD465DF8047B704700BFFF63FF035F
:1025780080B483B000AF786039607B6893F84130ED
:10258800DBB2202B38D17B6893F84030012B01D186
:10259800022332E07B68012283F840207B682422F2
:1025A80083F841207B681B681A687B681B6822F0E7
:1025B80001021A607B681B681A687B681B6822F432
:1025C80080521A607B681B6819687B681B683A68C8
:1025D8000A431A607B681B681A687B681B6842F0AC
:1025E80001021A607B68202283F841207B68002260
:1025F80083F84020002300E0022318460C37BD462C
:102608005DF8047B704780B485B000AF78603960AE
:102618007B6893F84130DBB2202B39D17B6893F883
:102628004030012B01D1022333E07B68012283F87B
:1026380040207B68242283F841207B681B681A6845
:102648007B681B6822F001021A607B681B681B68A4
:10265800FB60FB6823F47063FB603B681B02FA684D
:102668001343FB607B681B68FA681A607B681B6809
:102678001A687B681B6842F001021A607B68202296
:1026880083F841207B68002283F84020002300E083
:10269800022318461437BD465DF8047B70470000D6
:1026A80080B58EB000AF7860002387F837307B683C
:1026B800002B02D1012300F0C8BE994BDB6903F05F
:1026C8000C033B63964B9B6A03F00303FB627B6836
:1026D8001B6803F01003002B00F06C813B6B002B90
:1026E80007D03B6B0C2B40F0DE80FB6A012B40F0DF
:1026F800DA807B68DB69002B02D1012300F0A5BEDC
:102708007B685A6A864B9B6803F40003002B04D04D
:10271800834B9B6803F0704305E0814BD3F8F4309A
:102728001B0403F07043934255D23B6B002B0AD134
:102738007B685B6A184601F0D9F90346002B02D082
:10274800012300F082BE764B9B68754A43F4000370
:102758009360734B9B6823F070427B685B6A704997
:1027680013438B607B685B6AB3F1404F09D36C4BB2
:10277800DB6823F01F027B681B6A69491343CB603F
:102788007EE07B685B6A002B0ADA654BDB6823F422
:1027980078727B681B6A5B0161491343CB606FE009
:1027A8007B685B6AB3F1804F0AD35D4BDB6823F427
:1027B800F8427B681B6A9B0259491343CB605FE070
:1027C800574BDB6823F478227B681B6ADB03544988
:1027D8001343CB6054E0524B9B68514A43F40003C7
:1027E80093604F4B9B6823F070427B685B6A4C494F
:1027F80013438B607B685B6AB3F1404F09D3484B46
:10280800DB6823F01F027B681B6A45491343CB60D2
:1028180028E07B685B6A002B0ADA414BDB6823F40B
:1028280078727B681B6A5B013D491343CB6019E0F2
:102838007B685B6AB3F1804F0AD3394BDB6823F4BA
:10284800F8427B681B6A9B0235491343CB6009E059
:10285800334BDB6823F478227B681B6ADB0330493F
:102868001343CB603B6B002B0AD17B685B6A18462D
:1028780001F03CF90346002B02D0012300F0E5BD2E
:1028880001F0DEF8274B1B681846FFF7A5F803464A
:1028980087F8273097F82730002B00F08A8097F8C0
:1028A800273000F0D2BD7B68DB69002B66D01C4B5B
:1028B8001B681B4A43F001031360FFF717F9B8625E
:1028C80009E0FFF713F90246BB6AD31A022B02D9B3
:1028D800032300F0BABD124B1B6803F00403002B5E
:1028E800EFD00F4B9B680E4A43F4000393600C4BE8
:1028F8009B6823F070427B685B6A094913438B60CD
:102908007B685B6AB3F1404F0ED3054BDB6823F05D
:102918001F027B681B6A02491343CB604AE000BF71
:10292800000C0246040004207B685B6A002B0ADA6C
:10293800984BDB6823F478727B681B6A5B019549C6
:102948001343CB6036E07B685B6AB3F1804F0AD3F0
:10295800904BDB6823F4F8427B681B6A9B028D4925
:102968001343CB6026E08B4BDB6823F478227B682B
:102978001B6ADB0387491343CB601BE0854B1B684D
:10298800844A23F001031360FFF7B0F8B86209E046
:10299800FFF7ACF80246BB6AD31A022B02D903230D
:1029A80000F053BD7B4B1B6803F00403002BEFD1F1
:1029B80000E000BF7B681B6803F00103002B00F0F8
:1029C8008B803B6B082B05D03B6B0C2B09D1FB6A2A
:1029D800032B06D17B685B68002B7DD1012300F0B7
:1029E80034BD7B685B68B3F5803F06D1694B1B68D3
:1029F800684A43F48033136041E07B685B68B3F551
:102A0800A02F12D1634B1B68624A43F480231360E2
:102A1800604B1B685F4A23F4801313605D4B1B688F
:102A28005C4A43F48033136029E07B685B68B3F544
:102A3800A81F12D1574B1B68564A43F480231360D2
:102A4800544B1B68534A43F480131360514B1B6863
:102A5800504A43F48033136011E04E4B1B684D4AD3
:102A680023F4803313604B4B1B684A4A23F48023BA
:102A78001360484B1B68474A23F4801313607B6834
:102A88005B68002B14D0FFF731F8B86209E0FFF754
:102A98002DF80246BB6AD31A642B02D9032300F02F
:102AA800D4BC3C4B1B6803F40033002BEFD013E07D
:102AB800FFF71CF8B86209E0FFF718F80246BB6A8E
:102AC800D31A642B02D9032300F0BFBC314B1B6817
:102AD80003F40033002BEFD17B681B6803F002037B
:102AE800002B5FD03B6B042B05D03B6B0C2B14D118
:102AF800FB6A022B11D17B68DB68002B02D1012312
:102B080000F0A3BC234B1B6923F4F8127B681B69F4
:102B18001B04204913430B6144E07B68DB68002BEE
:102B280024D01C4B1B681B4A43F480731360FEF7C8
:102B3800DDFFB86209E0FEF7D9FF0246BB6AD31A87
:102B4800022B02D9032300F080BC124B1B6803F44C
:102B58008063002BEFD00F4B1B6923F4F8127B68BE
:102B68001B691B040B4913430B611BE0094B1B68D2
:102B7800084A23F480731360FEF7B8FFB8620BE0CD
:102B8800FEF7B4FF0246BB6AD31A022B04D903230B
:102B980000F05BBC000C0246AF4B1B6803F480637B
:102BA800002BEDD17B681B6803F00803002B00F0B5
:102BB800C880002387F83630A74BD3F8943003F049
:102BC8000403002B11D1A44BD3F89430A24A43F04C
:102BD8000403C2F89430A04BD3F8943003F00403F4
:102BE8007B617B69012387F836309C4B9B6A03F035
:102BF8000103002B19D1994B9B6A984A43F00103B2
:102C08009362FEF773FFB86209E0FEF76FFF0246B2
:102C1800BB6AD31A022B02D9032300F016BC8F4BD0
:102C28009B6A03F00103002BEFD07B685B69002BE4
:102C38005FD0894BD3F8F0303B627B689A693B6A76
:102C480003F080539A4237D03B6A03F00063002BAD
:102C580006D03B6A03F08063002B01D10123F4E323
:102C68003B6A03F08063002B1BD07B4BD3F8F0301A
:102C7800794A23F0A053C2F8F030FEF737FFB86264
:102C880008E0FEF733FF0246BB6AD31A052B01D9C9
:102C98000323DAE3704BD3F8F03003F00063002B22
:102CA800EFD16D4BD3F8F03023F080527B689B69ED
:102CB80069491343C1F8F030674BD3F8F030664ADE
:102CC80043F08063C2F8F030FEF710FFB86208E006
:102CD800FEF70CFF0246BB6AD31A052B01D9032362
:102CE800B3E35D4BD3F8F03003F00063002BEFD073
:102CF8001BE0594BD3F8F030574A23F0A053C2F8E1
:102D0800F030FEF7F3FEB86208E0FEF7EFFE024689
:102D1800BB6AD31A052B01D9032396E34E4BD3F88C
:102D2800F03003F00063002BEFD197F83630012B19
:102D380007D1494BD3F89430474A23F00403C2F82B
:102D480094307B681B6803F00403002B00F01181AA
:102D5800002387F83530404BD3F8943003F0040350
:102D6800002B11D13C4BD3F894303B4A43F0040379
:102D7800C2F89430384BD3F8943003F004033B6125
:102D88003B69012387F83530344B9B6A03F0010314
:102D9800002B18D1314B9B6A304A43F001039362F0
:102DA800FEF7A4FEB86208E0FEF7A0FE0246BB6A82
:102DB800D31A022B01D9032347E3284B9B6A03F05C
:102DC8000103002BF0D07B689B6803F00103002B04
:102DD8001FD07B689B6803F00403002B10D01E4BA8
:102DE800D3F8F0301C4A43F00403C2F8F0301A4B11
:102DF800D3F8F030184A43F00103C2F8F03018E075
:102E0800154BD3F8F030144A43F00103C2F8F03000
:102E18000FE0114BD3F8F0300F4A23F00103C2F84A
:102E2800F0300D4BD3F8F0300B4A23F00403C2F80E
:102E3800F0307B689B68002B57D0FEF757FEB862CE
:102E48000EE0FEF753FE0246BB6AD31A41F28832FF
:102E5800934205D90323F8E2000C02460008024613
:102E68009C4BD3F8F03003F00203002BE9D07B68C9
:102E78009B6803F08003002B1BD0964BD3F8F030EF
:102E8800944A43F08003C2F8F0300AE0FEF72EFEC1
:102E98000246BB6AD31A41F28832934201D903230E
:102EA800D3E28C4BD3F8F03003F40063002BEDD061
:102EB80053E0884BD3F8F030864A23F08003C2F8F9
:102EC800F0300AE0FEF712FE0246BB6AD31A41F25E
:102ED8008832934201D90323B7E27E4BD3F8F0300E
:102EE80003F40063002BEDD137E0FEF7FFFDB86275
:102EF8000AE0FEF7FBFD0246BB6AD31A41F28832AC
:102F0800934201D90323A0E2724BD3F8F03003F0C7
:102F18000203002BEDD16F4BD3F8F03003F08003A0
:102F2800002B1AD06B4BD3F8F0306A4A23F0800399
:102F3800C2F8F0300AE0FEF7D9FD0246BB6AD31AA0
:102F480041F28832934201D903237EE2614BD3F8E0
:102F5800F03003F40063002BEDD197F83530012BE6
:102F680007D15C4BD3F894305A4A23F00403C2F8D3
:102F780094307B681B6803F02003002B36D07B68F5
:102F8800DB6A002B19D0534B1B68524A43F4805319
:102F98001360FEF7ABFDB86208E0FEF7A7FD024636
:102FA800BB6AD31A022B01D903234EE2494B1B6893
:102FB80003F40053002BF0D018E0464B1B68454A39
:102FC80023F480531360FEF791FDB86208E0FEF722
:102FD8008DFD0246BB6AD31A022B01D9032334E2C2
:102FE8003C4B1B6803F40053002BF0D17B681B6833
:102FF80003F08003002B36D07B681B6B002B19D0A5
:10300800344B1B68334A43F480431360FEF76EFD6C
:10301800B86208E0FEF76AFD0246BB6AD31A022BC3
:1030280001D9032311E22B4B1B6803F40043002B47
:10303800F0D018E0274B1B68264A23F4804313601E
:10304800FEF754FDB86208E0FEF750FD0246BB6A81
:10305800D31A022B01D90323F7E11E4B1B6803F493
:103068000043002BF0D17B681B6803F04003002B62
:103078007FD07B685B6B002B62D0164B9B68154A30
:1030880043F400039360134B9B6823F070627B68E2
:103098009B6A104913438B607B685B6AB3F1404FAE
:1030A80009D30C4BDB6823F01F027B681B6A0949B4
:1030B8001343CB602AE07B685B6A002B0CDA054B74
:1030C800DB6823F478727B681B6A5B010149134350
:1030D800CB601BE0000C02467B685B6AB3F1804F53
:1030E8000AD3A14BDB6823F4F8427B681B6A9B0276
:1030F8009D491343CB6009E09B4BDB6823F478229E
:103108007B681B6ADB0398491343CB60964B1B68AB
:10311800954A43F010031360FEF7E8FCB86208E034
:10312800FEF7E4FC0246BB6AD31A022B01D903233B
:103138008BE18D4B1B6803F02003002BF0D018E0C7
:10314800894B1B68884A23F010031360FEF7CEFCF6
:10315800B86208E0FEF7CAFC0246BB6AD31A022B23
:1031680001D9032371E1804B1B6803F02003002B76
:10317800F0D17B689B6B002B00F06681002387F8F9
:103188003430794BDB6903F00C030C2B00F0F28030
:103198007B689B6B022B40F0C580734B1B68724A9F
:1031A80023F080731360FEF7A1FCB86208E0FEF715
:1031B8009DFC0246BB6AD31A022B01D9032344E1C2
:1031C800694B1B6803F00073002BF0D1664BD3F8F2
:1031D800943003F00403002B11D1634BD3F89430DF
:1031E800614A43F00403C2F894305F4BD3F894303B
:1031F80003F00403FB60FB68012387F834305B4B62
:10320800DB6803F48023B3F5802F02D1012387F80C
:103218003730564BDB68554A23F48023D360524B32
:103228009B6A23F47F4323F003037A68D16B7A689F
:10323800126C013A120211437A68526C0A434A49E5
:1032480013438B62484B5A6B494B13407A68926C14
:10325800013AC2F308017A68D26C013A520292B27A
:1032680011437A68126D013A120402F4FE02114306
:103278007A68526D013A120602F0FE420A433A4950
:1032880013434B63384B9B6A374A23F0100393620E
:103298007B68DB6D344ADB009363334B9B6A324AAD
:1032A80043F010039362304B9B6A23F00C027B6857
:1032B8009B6D2D4913438B6297F83730012B05D14D
:1032C8002A4BDB68294A43F48023D36097F83430CB
:1032D800012B07D1244BD3F89430234A23F004035D
:1032E800C2F89430204B1B681F4A43F08073136068
:1032F800FEF7FCFBB86208E0FEF7F8FB0246BB6A83
:10330800D31A022B01D903239FE0174B1B6803F044
:103318000073002BF0D0144B9B6A134A43F48023AC
:10332800936291E0104B1B680F4A23F0807313607F
:10333800FEF7DCFBB86208E0FEF7D8FB0246BB6A82
:10334800D31A022B01D903237FE0074B1B6803F034
:103358000073002BF0D1044B9B6A034A23F4E0234B
:1033680023F0030393626FE0000C02460008024654
:1033780000008080374B9B6AFB61364B5B6BBB61FF
:103388007B689B6B012B39D0FB6903F003027B68D8
:10339800DB6B9A4232D1FB691B0A03F00F027B6890
:1033A8001B6C013B9A4229D1FB6903F470427B688C
:1033B8005B6C9A4222D1BB69C3F308027B689B6CA1
:1033C800013B9A421AD1BB695B0A03F07F027B6812
:1033D800DB6C013B9A4211D1BB691B0C03F07F02E5
:1033E8007B681B6D013B9A4208D1BB691B0E03F039
:1033F8007F027B685B6D013B9A4201D0012324E088
:10340800144B9B6BDB08C3F30C027B68DB6D9A42A1
:103418001AD0104B9B6A0F4A23F010039362FEF7F1
:1034280065FBB86200BFFEF761FB0246BB6A9342C8
:10343800F9D07B68DB6D074ADB009363054B9B6A19
:10344800044A43F010039362002318463837BD46F8
:1034580080BD00BF000C024680B586B000AF786022
:1034680039607B68002B01D10123D9E19B4B1B6894
:1034780003F00F033A689A4210D9984B1B6823F05F
:103488000F0296493B6813430B60944B1B6803F08B
:103498000F033A689A4201D00123C1E17B681B6897
:1034A80003F01003002B10D07B685A698C4B5B6AC1
:1034B80003F070039A4208D9894B5B6A23F07002C3
:1034C8007B685B69864913434B627B681B6803F022
:1034D8000803002B12D07B681A69814B1B6A1B09F1
:1034E80003F070039A4209D97D4B1B6A23F4E0620A
:1034F8007B681B691B017A4913430B627B681B6855
:1035080003F00403002B10D07B68DA68744B1B6A45
:1035180003F070039A4208D9714B1B6A23F07002BA
:103528007B68DB686E4913430B627B681B6803F09A
:103538000203002B10D07B689A68694B1B6A03F062
:103548000F039A4208D9664B1B6A23F00F027B6867
:103558009B68634913430B627B681B6803F0010394
:10356800002B00F0D2800023FB757B685B68032B7F
:1035780043D15B4BD3F8943003F00403002B10D1F4
:10358800574BD3F89430564A43F00403C2F89430AA
:10359800534BD3F8943003F00403BB60BB6801239A
:1035A800FB75FEF7A3FA38614E4BDB6803F4802302
:1035B800002B0FD008E0FEF799FA02463B69D31AB0
:1035C800022B01D903232BE1464BDB6803F480432C
:1035D800002BF0D0FB7D012B07D1414BD3F8943061
:1035E8003F4A23F00403C2F894303D4B1B6803F0B4
:1035F8000073002B21D1012312E17B685B68022B49
:1036080007D1374B1B6803F40033002B15D1012376
:1036180006E17B685B68002B07D1314B1B6803F020
:103628000403002B09D10123FAE02D4B1B6803F496
:103638008063002B01D10123F2E0294BDB6923F0E1
:1036480003027B685B6826491343CB61FEF74EFA99
:1036580038617B685B68032B12D10AE0FEF746FAF3
:1036680002463B69D31A41F28832934201D90323B7
:10367800D6E01B4BDB6903F00C030C2BEED144E0C6
:103688007B685B68022B12D10AE0FEF72FFA02462C
:103698003B69D31A41F28832934201D90323BFE030
:1036A8000F4BDB6903F00C03082BEED12DE07B6890
:1036B8005B68002B23D10AE0FEF718FA02463B6943
:1036C800D31A41F28832934201D90323A8E0044B6C
:1036D800DB6903F00C03002BEED116E0002002405A
:1036E800000C024600080246FEF700FA02463B6953
:1036F800D31A41F28832934201D9032390E04A4B0E
:10370800DB6903F00C03042BEED17B681B6803F024
:103718000203002B10D07B689A68434B1B6A03F0A6
:103728000F039A4208D2404B1B6A23F00F027B68B2
:103738009B683D4913430B623C4B1B6803F00F0326
:103748003A689A4210D2394B1B6823F00F02374966
:103758003B6813430B60354B1B6803F00F033A6853
:103768009A4201D001235BE07B681B6803F00403E5
:10377800002B10D07B68DA682B4B1B6A03F07003B0
:103788009A4208D2284B1B6A23F070027B68DB68D8
:10379800254913430B627B681B6803F00803002B61
:1037A80012D07B681A69204B1B6A1B0903F070034F
:1037B8009A4209D21C4B1B6A23F4E0627B681B699E
:1037C8001B01194913430B627B681B6803F0100344
:1037D800002B10D07B685A69134B5B6A03F07003A7
:1037E8009A4208D2104B5B6A23F070027B685B69CF
:1037F8000D4913434B6200F021F802460A4B1B6A3D
:1038080003F00F030A49CB5C22FA03F3094A136059
:10381800094B1B681846FEF7DFF80346FB73FB7B72
:1038280018461837BD4680BD000C024600200240ED
:10383800E82E1108000004200400042080B48BB096
:1038480000AF00237B6200233B62784BDB6903F007
:103858000C03BB61754B9B6A03F003037B61BB6977
:10386800002B05D0BB690C2B21D17B69012B1ED104
:103878006E4B9B6803F40003002B07D16B4BD3F806
:10388800F4301B0B03F00F037B6205E0674B9B686A
:103898001B0F03F00F037B62654A7B6A52F82330E3
:1038A8007B62BB69002B10D17B6A3B620DE05F4BEA
:1038B800DB6903F00C03042B02D15E4B3B6204E08E
:1038C800BB69082B01D15B4B3B62BB690C2B40F0F9
:1038D800A580564B9B6A03F003033B61534B9B6ADD
:1038E8001B0A03F00F030133FB60504B9B6A1B0953
:1038F80003F00103BB604D4B9B6BDB08C3F30C0368
:10390800BA6802FB03F307EE903AF8EE677AC7ED60
:10391800017A3B69022B03D03B69032B22D043E099
:10392800FB6807EE903AF8EE677ADFED436A86EEB9
:10393800A77A3E4B5B6BC3F3080307EE903AF8EEA9
:10394800676A97ED016ADFED3D5AC6EE257A76EE95
:10395800A77AF7EE006A77EEA67A67EE277AC7EDC0
:10396800077A46E0FB6807EE903AF8EE677ADFEDF3
:10397800326A86EEA77A2D4B5B6BC3F3080307EE1A
:10398800903AF8EE676A97ED016ADFED2C5AC6EEB9
:10399800257A76EEA77AF7EE006A77EEA67A67EED2
:1039A800277AC7ED077A24E07B6A07EE903AF8EEAB
:1039B800676AFB6807EE903AF8EE677A86EEA77AB0
:1039C8001A4B5B6BC3F3080307EE903AF8EE676A8D
:1039D80097ED016ADFED195AC6EE257A76EEA77AD9
:1039E800F7EE006A77EEA67A67EE277AC7ED077AD0
:1039F80000BF0E4B5B6B1B0E03F07F0301333B6074
:103A08003B6807EE903AB8EE677AD7ED076AC6EEDC
:103A1800877AFCEEE77A17EE903A3B623B6A1846E3
:103A28002C37BD465DF8047B704700BF000C02468A
:103A3800002F11080024F4000024744B00000046F5
:103A480080B500AFFFF7FAFE0246074B1B6A03F08A
:103A58000F030649CB5C22FA03F3054A1360044BB3
:103A68001B68184680BD00BF000C0246E82E1108EE
:103A78000000042080B500AFFFF7E2FF0246054BC7
:103A88001B6A1B0903F007030349CB5C22FA03F303
:103A9800184680BD000C0246F82E110880B500AF0C
:103AA800FFF7CEFF0246054B1B6A1B0A03F007030C
:103AB8000349CB5C22FA03F3184680BD000C02468A
:103AC800F82E110880B500AFFFF7BAFF0246054B84
:103AD8005B6A1B0903F007030349CB5C22FA03F373
:103AE800184680BD000C0246F82E110880B586B035
:103AF80000AF78603E4BD3F8943003F00403002BFA
:103B080003D002F087FF786119E0394BD3F894307D
:103B1800374A43F00403C2F89430354BD3F8943055
:103B280003F00403FB60FB6802F074FF7861304B1C
:103B3800D3F894302E4A23F00403C2F894307B69FA
:103B4800B3F5403F03D07B69B3F5003F09D17B68EB
:103B5800B3F1805F02D201233B6133E000233B6174
:103B680030E07B68B3F1805F08D27B69B3F5803FB2
:103B780002D103233B6125E0012335E07B68B3F1E3
:103B8800005F0FD97B69002B09D17B68B3F1405FD7
:103B980002D900233B6115E001233B6112E00023B9
:103BA8003B610FE07B68B3F1805F09D17B69B3F5B6
:103BB800803F02D101233B6104E002233B6101E025
:103BC80001233B610B4B1B6823F00F0209493B693A
:103BD80013430B60074B1B6803F00F033A699A42C3
:103BE80001D0012300E0002318461837BD4680BDE8
:103BF800000C0246002002402DE9B04FB8B000AFDB
:103C0800C7F8CC00002387F8DB30002387F8DA30C8
:103C1800D7F8CC30D3E9002302F00104002554EA98
:103C280005030BD0CA4BD3F8E03023F00301D7F8D3
:103C3800CC301B6DC64A0B43C2F8E030D7F8CC3005
:103C4800D3E9002302F002084FF0000958EA0903FB
:103C58000BD0BF4BD3F8E03023F00C01D7F8CC30B1
:103C68005B6DBB4A0B43C2F8E030D7F8CC30D3E9E0
:103C7800002302F0040A4FF0000B5AEA0B030BD0A2
:103C8800B34BD3F8E03023F03001D7F8CC309B6D3C
:103C9800AF4A0B43C2F8E030D7F8CC30D3E9002361
:103CA80002F00803C7F8C0300023C7F8C430D7E9CA
:103CB80030120B4613430BD0A54BD3F8E03023F05A
:103CC800C001D7F8CC30DB6DA14A0B43C2F8E03015
:103CD800D7F8CC30D3E9002302F01003C7F8B83086
:103CE8000023C7F8BC30D7E92E120B4613430BD07C
:103CF800974BD3F8E03023F44071D7F8CC301B6EE3
:103D0800934A0B43C2F8E030D7F8CC30D3E900230C
:103D180002F02003C7F8B0300023C7F8B430D7E961
:103D28002C120B4613430BD0894BD3F8E83023F001
:103D38000701D7F8CC305B6E854A0B43C2F8E830F0
:103D4800D7F8CC30D3E9002302F04003C7F8A830F5
:103D58000023C7F8AC30D7E92A120B4613430BD01F
:103D68007B4BD3F8E03023F44061D7F8CC309B6E1E
:103D7800774A0B43C2F8E030D7F8CC30D3E90023B8
:103D880002F08003C7F8A0300023C7F8A430D7E9B1
:103D980028120B4613430BD06D4BD3F8E03023F4B5
:103DA8004051D7F8CC30DB6E694A0B43C2F8E0309B
:103DB800D7F8CC30D3E9002302F48073C7F89830E1
:103DC8000023C7F89C30D7E926120B4613430BD0C3
:103DD8005F4BD3F8E83023F0C001D7F8CC301B6F25
:103DE8005B4A0B43C2F8E830D7F8CC30D3E900235C
:103DF80002F48003C7F890300023C7F89430D7E95D
:103E080024120B4613430BD0514BD3F8E03023F464
:103E18004041D7F8CC305B6F4D4A0B43C2F8E030D5
:103E2800D7F8CC30D3E9002302F40073C7F8883000
:103E38000023C7F88C30D7E922120B4613430BD066
:103E4800434BD3F8E83023F44061D7F8CC309B6F6C
:103E58003F4A0B43C2F8E830D7F8CC30D3E9002307
:103E680002F48063C7F880300023C7F88430D7E9AC
:103E780020120B4613430BD0354BD3F8E03023F414
:103E88004021D7F8CC30DB6F314A0B43C2F8E03021
:103E9800D7F8CC30D3E9002302F40063BB670023D2
:103EA800FB67D7E91E120B4613430CD0284BD3F8F7
:103EB800E83023F44071D7F8CC30D3F88030244A66
:103EC8000B43C2F8E830D7F8CC30D3E9002302F42A
:103ED80000533B6700237B67D7E91C120B4613434B
:103EE8004FD0D7F8CC30D3F89030802B2DD0802B02
:103EF80027D8602B2ED0602B23D8402B06D0402B00
:103F08001FD8002B09D0202B11D01AE0104B9B6A28
:103F18000F4A43F4803393621DE0D7F8CC3008335E
:103F2800184602F0D1F9034687F8DB3013E0D7F8DA
:103F3800CC302C33184602F05FFA034687F8DB30A2
:103F480009E0012387F8DB3005E000BF03E000BF8C
:103F5800000C024600BF97F8DB30002B0DD1B64BA2
:103F6800D3F8E43023F0E001D7F8CC30D3F8903020
:103F7800B14A0B43C2F8E43003E097F8DB3087F826
:103F8800DA30D7F8CC30D3E9002302F48043BB669B
:103F98000023FB66D7E91A120B46134353D0D7F810
:103FA800CC30D3F89430B3F5806F33D0B3F5806F4D
:103FB8002CD8B3F5407F2FD0B3F5407F26D8B3F582
:103FC800007F08D0B3F5007F20D8002B0AD0B3F5C6
:103FD800807F11D01AE0984B9B6A974A43F480334C
:103FE80093621AE0D7F8CC300833184602F06CF91F
:103FF800034687F8DB3010E0D7F8CC302C3318466E
:1040080002F0FAF9034687F8DB3006E0012387F867
:10401800DB3002E000BF00E000BF97F8DB30002B88
:104028000DD1854BD3F8E43023F4E061D7F8CC30D8
:10403800D3F89430804A0B43C2F8E43003E097F891
:10404800DB3087F8DA30D7F8CC30D3E9002302F434
:1040580000433B6600237B66D7E918120B461343DF
:1040680046D0D7F8CC30D3F8A430B3F5A04F28D039
:10407800B3F5A04F21D8B3F5804F22D0B3F5804FC8
:104088001BD8B3F5405F1CD0B3F5405F15D8B3F526
:10409800005F08D0B3F5005F0FD8002B11D0B3F53F
:1040A800805F0ED009E0D7F8CC300833184602F00C
:1040B8000BF9034687F8DB3004E0012387F8DB308F
:1040C80000E000BF97F8DB30002B0DD15A4BD3F836
:1040D800E83023F4E041D7F8CC30D3F8A430564A7E
:1040E8000B43C2F8E83003E097F8DB3087F8DA30A2
:1040F800D7F8CC30D3E9002302F48033BB65002322
:10410800FB65D7E916120B4613433FD0D7F8CC30DE
:10411800D3F88830042B1ED801A252F823F000BF30
:10412800674110083D4110084B41100867411008CD
:1041380067411008404B9B6A3F4A43F480339362BF
:104148000EE0D7F8CC302C33184602F055F9034668
:1041580087F8DB3004E0012387F8DB3000E000BF9C
:1041680097F8DB30002B0DD1334BD3F8E43023F034
:104178000701D7F8CC30D3F888302F4A0B43C2F860
:10418800E43003E097F8DB3087F8DA30D7F8CC3042
:10419800D3E9002302F400333B6500237B65D7E9AC
:1041A80014120B4613434DD0D7F8CC30D3F88C30CB
:1041B800B3F5802F28D0B3F5802F21D8B3F5403F31
:1041C80024D0B3F5403F1BD8B3F5003F0ED0B3F56C
:1041D800003F15D8002B1BD0B3F5803F10D1164BEC
:1041E8009B6A154A43F48033936212E0D7F8CC30C7
:1041F8002C33184602F000F9034687F8DB3008E054
:10420800012387F8DB3004E000BF02E000BF00E0D4
:1042180000BF97F8DB30002B10D1074BD3F8E830FC
:1042280023F4E021D7F8CC30D3F88C30024A0B4382
:10423800C2F8E83006E000BF000C024697F8DB3011
:1042480087F8DA30D7F8CC30D3E9002302F480239A
:10425800BB640023FB64D7E912120B46134300F03A
:10426800B580002387F8D9309D4BD3F8943003F0FC
:104278000403002B13D19A4BD3F89430984A43F097
:104288000403C2F89430964BD3F8943003F0040337
:10429800C7F8D030D7F8D030012387F8D930914B00
:1042A8009B6A904A43F001039362FDF71FFCC7F82D
:1042B800D4000BE0FDF71AFC0246D7F8D430D31A25
:1042C800022B03D9032387F8DB3005E0854B9B6A73
:1042D80003F00103002BEDD097F8DB30002B65D1FC
:1042E8007F4BD3F8F03003F44073C7F8DC30D7F8CD
:1042F800DC30002B23D0D7F8CC30D3F8BC20D7F84B
:10430800DC3093421BD0764BD3F8F03023F4407363
:10431800C7F8DC30724BD3F8F030714A43F480337D
:10432800C2F8F0306E4BD3F8F0306D4A23F4803386
:10433800C2F8F0306A4AD7F8DC30C2F8F030D7F863
:10434800DC3003F00103002B19D0FDF7CFFBC7F8D1
:10435800D4000DE0FDF7CAFB0246D7F8D430D21AD4
:1043680041F288339A4203D9032387F8DB3006E009
:104378005B4BD3F8F03003F00203002BEAD097F838
:10438800DB30002B0DD1564BD3F8F03023F44071BD
:10439800D7F8CC30D3F8BC30514A0B43C2F8F030D0
:1043A80008E097F8DB3087F8DA3003E097F8DB307D
:1043B80087F8DA3097F8D930012B07D1484BD3F872
:1043C8009430474A23F00403C2F89430D7F8CC302D
:1043D800D3E9002302F480133B6400237B64D7E90C
:1043E80010120B46134342D0D7F8CC30D3F89C3088
:1043F800B3F1406F22D0B3F1406F1BD8B3F1006F17
:1044080011D0B3F1006F15D8002B19D0B3F1806F1C
:1044180010D1D7F8CC300833184601F055FF0346C1
:1044280087F8DB300DE02E4B9B6A2D4A43F40033AE
:10443800936206E0012387F8DB3002E000BF00E06A
:1044480000BF97F8DB30002B0DD1254BD3F8E030B7
:1044580023F04061D7F8CC30D3F89C30204A0B4386
:10446800C2F8E03003E097F8DB3087F8DA30D7F8A5
:10447800CC30D3E9002302F40023BB630023FB63A1
:10448800D7E90E120B46134332D0D7F8CC30D3F805
:104498009830B3F5005F0BD0B3F5005F04D8002B5C
:1044A80008D0B3F5805F07D0012387F8DB3004E03C
:1044B80000BF02E000BF00E000BF97F8DB30002B30
:1044C80012D1074BD3F8E43023F44051D7F8CC305D
:1044D800D3F89830024A0B43C2F8E43008E000BF32
:1044E800000C02460008024697F8DB3087F8DA30FD
:1044F800D7F8CC30D3E9002302F400133B63002340
:104508007B63D7E90C120B46134319D0D7F8CC308C
:10451800D3F8A030B3F5804F05D1884B9B6A874A02
:1045280043F480339362854BD3F8E43023F480411D
:10453800D7F8CC30D3F8A030804A0B43C2F8E43027
:10454800D7F8CC30D3E9002302F40003BB62002380
:10455800FB62D7E90A120B4613430CD0774BD3F80A
:10456800E03023F44012D7F8CC30D3F8B030734998
:104578001343C1F8E030D7F8CC30D3E9002302F078
:1045880080733B6200237B62D7E908120B46134312
:104598000CD06A4BD3F8E03023F44032D7F8CC3053
:1045A800D3F8B43065491343C1F8E030D7F8CC30BC
:1045B800D3E9002302F00073BB610023FB61D7E954
:1045C80006120B4613430CD05C4BD3F8E83023F0AB
:1045D8001802D7F8CC30D3F8B83058491343C1F88B
:1045E800E830D7F8CC30D3E9002302F080633B6190
:1045F80000237B61D7E904120B46134332D0D7F866
:10460800CC30D3F8AC30B3F5001F05D14B4B9B6AC7
:104618004A4A43F400339362D7F8CC30D3F8AC302D
:10462800B3F5401F08D1D7F8CC300833184601F04D
:104638004BFE034687F8DB3097F8DB30002B0DD1B3
:104648003E4BD3F8E43023F44012D7F8CC30D3F8FB
:10465800AC303A491343C1F8E43003E097F8DB3053
:1046680087F8DA30D7F8CC30D3E9002302F00063BA
:10467800BB600023FB60D7E902120B4613433AD014
:10468800D7F8CC30D3F88430B3F1007F0ED0B3F133
:10469800007F15D8002B17D0B3F1807F10D1274B9E
:1046A8009B6A264A43F4003393620EE0D7F8CC3075
:1046B8000833184601F008FE034687F8DB3004E0AB
:1046C800012387F8DB3000E000BF97F8DB30002BD0
:1046D8000DD11A4BD3F8E03023F04072D7F8CC3024
:1046E800D3F8843015491343C1F8E03003E097F854
:1046F800DB3087F8DA30D7F8CC30D3E9002302F082
:1047080080533B6000237B60D7E900120B461343BC
:104718000CD00A4BD3F8E83023F40042D7F8CC3059
:10472800D3F8A83005491343C1F8E83097F8DA30D0
:104738001846E037BD46BDE8B08F00BF000C024602
:1047480080B489B000AF7860A64B5B6BC3F30803F5
:10475800BB61A44B9B6A03F003037B61A14B9B6A7B
:104768001B0A03F00F0301333B619E4B9B6A1B0935
:1047780003F00103FB609B4B9B6BDB08C3F30C034B
:10478800FA6802FB03F307EE903AF8EE677AC7ED92
:10479800027A7B69032B62D07B69032B00F281804C
:1047A8007B69012B24D07B69022B7AD13B6907EE08
:1047B800903AF8EE677ADFED8C6A86EEA77A894B35
:1047C8005B6BC3F3080307EE903AF8EE676A97ED60
:1047D800026ADFED865AC6EE257A76EEA77AF7EEFC
:1047E800006A77EEA67A67EE277AC7ED077A8FE038
:1047F8007C4B9B6803F40003002B05D0794B9B6826
:104808001B0F03F00F0306E0764BD3F8F4301B04BC
:104818001B0F03F00F03764A52F8233007EE903A45
:10482800F8EE676A3B6907EE903AF8EE677A86EE2B
:10483800A77ABB6907EE903AF8EE676A97ED026AC5
:10484800DFED6A5AC6EE257A76EEA77AF7EE006AA9
:1048580077EEA67A67EE277AC7ED077A58E03B69C4
:1048680007EE903AF8EE677ADFED5F6A86EEA77A90
:104878005C4B5B6BC3F3080307EE903AF8EE676A8C
:1048880097ED026ADFED595AC6EE257A76EEA77AD9
:10489800F7EE006A77EEA67A67EE277AC7ED077A11
:1048A80036E0504B9B6803F40003002B05D04D4BBA
:1048B8009B681B0F03F00F0306E04A4BD3F8F43054
:1048C8001B041B0F03F00F03494A52F8233007EE6D
:1048D800903AF8EE676A3B6907EE903AF8EE677A25
:1048E80086EEA77ABB6907EE903AF8EE676A97ED0D
:1048F800026ADFED3E5AC6EE257A76EEA77AF7EE23
:10490800006A77EEA67A67EE277AC7ED077A00BFC6
:10491800344B9B6A03F48033002B17D0314B5B6B0D
:104928005B0A03F07F0307EE903AF8EE677AB7EE7A
:10493800007A37EE877AD7ED076AC6EE877AFCEEFB
:10494800E77A17EE902A7B681A6002E07B680022FB
:104958001A60244B9B6A03F40033002B17D0214BB9
:104968005B6B1B0C03F07F0307EE903AF8EE677A57
:10497800B7EE007A37EE877AD7ED076AC6EE877A00
:10498800FCEEE77A17EE902A7B685A6002E07B68B3
:1049980000225A60134B9B6A03F48023002B17D024
:1049A800104B5B6B1B0E03F07F0307EE903AF8EE9B
:1049B800677AB7EE007A37EE877AD7ED076AC6EEE0
:1049C800877AFCEEE77A17EE902A7B689A6002E015
:1049D8007B6800229A6000BF2437BD465DF8047BDF
:1049E800704700BF000C02460024744B00000046CC
:1049F800002F110880B489B000AF7860A64BDB6B3C
:104A0800C3F30803BB61A44BDB6A03F003037B61B8
:104A1800A14BDB6A1B0A03F00F0301333B619E4B7A
:104A2800DB6A1B0903F00103FB609B4B1B6CDB0873
:104A3800C3F30C03FA6802FB03F307EE903AF8EEAF
:104A4800677AC7ED027A7B69032B62D07B69032BF7
:104A580000F281807B69012B24D07B69022B7AD1FB
:104A68003B6907EE903AF8EE677ADFED8C6A86EEDE
:104A7800A77A894BDB6BC3F3080307EE903AF8EE8D
:104A8800676A97ED026ADFED865AC6EE257A76EEFA
:104A9800A77AF7EE006A77EEA67A67EE277AC7ED6F
:104AA800077A8FE07C4B9B6803F40003002B05D04A
:104AB800794B9B681B0F03F00F0306E0764BD3F886
:104AC800F4301B041B0F03F00F03764A52F823300F
:104AD80007EE903AF8EE676A3B6907EE903AF8EE0F
:104AE800677A86EEA77ABB6907EE903AF8EE676AAE
:104AF80097ED026ADFED6A5AC6EE257A76EEA77A56
:104B0800F7EE006A77EEA67A67EE277AC7ED077A9E
:104B180058E03B6907EE903AF8EE677ADFED5F6A96
:104B280086EEA77A5C4BDB6BC3F3080307EE903A7B
:104B3800F8EE676A97ED026ADFED595AC6EE257AF4
:104B480076EEA77AF7EE006A77EEA67A67EE277A0E
:104B5800C7ED077A36E0504B9B6803F40003002B3F
:104B680005D04D4B9B681B0F03F00F0306E04A4B23
:104B7800D3F8F4301B041B0F03F00F03494A52F813
:104B8800233007EE903AF8EE676A3B6907EE903AF1
:104B9800F8EE677A86EEA77ABB6907EE903AF8EEE8
:104BA800676A97ED026ADFED3E5AC6EE257A76EE21
:104BB800A77AF7EE006A77EEA67A67EE277AC7ED4E
:104BC800077A00BF344BDB6A03F48033002B17D01D
:104BD800314BDB6B5B0A03F07F0307EE903AF8EE8C
:104BE800677AB7EE007A37EE877AD7ED076AC6EEAE
:104BF800877AFCEEE77A17EE902A7B681A6002E063
:104C08007B6800221A60244BDB6A03F40033002B14
:104C180017D0214BDB6B1B0C03F07F0307EE903A98
:104C2800F8EE677AB7EE007A37EE877AD7ED076A3B
:104C3800C6EE877AFCEEE77A17EE902A7B685A6010
:104C480002E07B6800225A60134BDB6A03F480237E
:104C5800002B17D0104BDB6B1B0E03F07F0307EE06
:104C6800903AF8EE677AB7EE007A37EE877AD7EDA2
:104C7800076AC6EE877AFCEEE77A17EE902A7B6819
:104C88009A6002E07B6800229A6000BF2437BD4624
:104C98005DF8047B704700BF000C02460024744B8B
:104CA80000000046002F110880B489B000AF78607A
:104CB800A64B5B6CC3F30803BB61A44B1B6B03F0EF
:104CC80003037B61A14B1B6B1B0A03F00F0301332A
:104CD8003B619E4B1B6B1B0903F00103FB609B4B65
:104CE8009B6CDB08C3F30C03FA6802FB03F307EEC3
:104CF800903AF8EE677AC7ED027A7B69032B62D0A7
:104D08007B69032B00F281807B69012B24D07B69AE
:104D1800022B7AD13B6907EE903AF8EE677ADFED1D
:104D28008C6A86EEA77A894B5B6CC3F3080307EE9F
:104D3800903AF8EE676A97ED026ADFED865AC6EE9A
:104D4800257A76EEA77AF7EE006A77EEA67A67EE0E
:104D5800277AC7ED077A8FE07C4B9B6803F4000342
:104D6800002B05D0794B9B681B0F03F00F0306E05F
:104D7800764BD3F8F4301B041B0F03F00F03764A6D
:104D880052F8233007EE903AF8EE676A3B6907EE6F
:104D9800903AF8EE677A86EEA77ABB6907EE903A02
:104DA800F8EE676A97ED026ADFED6A5AC6EE257A71
:104DB80076EEA77AF7EE006A77EEA67A67EE277A9C
:104DC800C7ED077A58E03B6907EE903AF8EE677A44
:104DD800DFED5F6A86EEA77A5C4B5B6CC3F3080372
:104DE80007EE903AF8EE676A97ED026ADFED595AD6
:104DF800C6EE257A76EEA77AF7EE006A77EEA67AFF
:104E080067EE277AC7ED077A36E0504B9B6803F4C4
:104E18000003002B05D04D4B9B681B0F03F00F03BD
:104E280006E04A4BD3F8F4301B041B0F03F00F03C2
:104E3800494A52F8233007EE903AF8EE676A3B6920
:104E480007EE903AF8EE677A86EEA77ABB6907EE26
:104E5800903AF8EE676A97ED026ADFED3E5AC6EEC1
:104E6800257A76EEA77AF7EE006A77EEA67A67EEED
:104E7800277AC7ED077A00BF344B1B6B03F48033E6
:104E8800002B17D0314B5B6C5B0A03F07F0307EEF6
:104E9800903AF8EE677AB7EE007A37EE877AD7ED70
:104EA800076AC6EE877AFCEEE77A17EE902A7B68E7
:104EB8001A6002E07B6800221A60244B1B6B03F423
:104EC8000033002B17D0214B5B6C1B0C03F07F03C6
:104ED80007EE903AF8EE677AB7EE007A37EE877AFF
:104EE800D7ED076AC6EE877AFCEEE77A17EE902AC6
:104EF8007B685A6002E07B6800225A60134B1B6B88
:104F080003F48023002B17D0104B5B6C1B0E03F0AF
:104F18007F0307EE903AF8EE677AB7EE007A37EE3D
:104F2800877AD7ED076AC6EE877AFCEEE77A17EE3E
:104F3800902A7B689A6002E07B6800229A6000BF32
:104F48002437BD465DF8047B704700BF000C02465D
:104F58000024744B00000046002F110880B58EB065
:104F680000AFC7E90001D7E90023A2F580210B4370
:104F780045D1AA4BD3F8F03003F440733B63A74BF9
:104F8800D3F8F03003F00203022B08D13B6BB3F5E2
:104F9800807F04D14FF400437B6301F087B99F4BB6
:104FA800D3F8F03003F00063B3F1006F14D13B6B1A
:104FB800B3F5007F10D1994BD3F8F03003F080534C
:104FC800B3F1805F03D1FA237B6301F06FB94FF42B
:104FD800FA437B6301F06AB9904B1B6803F4003312
:104FE800B3F5003F07D13B6BB3F5407F03D18C4B42
:104FF8007B6301F05BB900237B6301F057B9D7E904
:105008000023A2F500510B4351D1844BD3F8E4306F
:1050180003F0E0033B633B6B802B35D03B6B802B6D
:1050280041D83B6B602B2AD03B6B602B3BD83B6B4A
:10503800402B09D03B6B402B35D83B6B002B0CD059
:105048003B6B202B12D02EE007F124031846FFF704
:1050580077FB7B6A7B6301F029B907F118031846CF
:10506800FFF7C8FCBB697B6301F020B907F10C03AB
:105078001846FFF719FEFB687B6301F017B94BF67A
:1050880080337B6301F012B9644B1B6803F48063BF
:10509800B3F5806F03D1634B7B6301F007B900233D
:1050A8007B6301F003B900237B6301F0FFB8D7E904
:1050B8000023A2F580410B4358D1584BD3F8E43074
:1050C80003F4E0633B633B6BB3F5806F3BD03B6B12
:1050D800B3F5806F46D83B6BB3F5407F2ED03B6B62
:1050E800B3F5407F3ED83B6BB3F5007F0BD03B6BED
:1050F800B3F5007F36D83B6B002B0DD03B6BB3F577
:10510800807F12D02EE007F124031846FFF718FB22
:105118007B6A7B6301F0CAB807F118031846FFF7EA
:1051280069FCBB697B6301F0C1B807F10C03184641
:10513800FFF7BAFDFB687B6301F0B8B84BF6803324
:105148007B6301F0B3B8354B1B6803F48063B3F598
:10515800806F03D1334B7B6301F0A8B800237B63D6
:1051680001F0A4B800237B6301F0A0B8D7E90023BD
:10517800A2F580110B436ED1284BD3F8E03003F031
:1051880040633B633B6BB3F1406F34D03B6BB3F18F
:10519800406F5CD83B6BB3F1006F0BD03B6BB3F146
:1051A800006F54D83B6B002B16D03B6BB3F1806F6C
:1051B80009D04CE007F124031846FFF7C1FABB6A8F
:1051C8007B6301F073B807F118031846FFF712FC68
:1051D800FB697B6301F06AB8104B1B6803F400534A
:1051E800B3F5005F03D1104B7B6301F05FB8002378
:1051F8007B6301F05BB8094B1B6803F02003202B8D
:1052080021D1064B9B6803F40003002B0ED0034BFF
:105218009B681B0E03F00F030FE000BF000C024653
:1052280020A107000024F400006CDC02A74BD3F88F
:10523800F4301B041B0E03F00F03A54A52F8233069
:105248007B6301F033B800237B6301F02FB80023A0
:105258007B6301F02BB8D7E90023A2F500110B43BB
:105268007FD19A4BD3F8E43003F480433B633B6B24
:10527800002B65D1954BD3F8E03003F040633B63D6
:105288003B6BB3F1406F34D03B6BB3F1406F53D8F5
:105298003B6BB3F1006F0BD03B6BB3F1006F4BD896
:1052A8003B6B002B16D03B6BB3F1806F09D043E00A
:1052B80007F124031846FFF743FABB6A7B6300F043
:1052C800F5BF07F118031846FFF794FBFB697B63EA
:1052D80000F0ECBF7D4B1B6803F40053B3F5005F8F
:1052E80003D17C4B7B6300F0E1BF00237B6300F0BC
:1052F800DDBF764B1B6803F02003202B18D1734BBE
:105308009B6803F40003002B05D0704B9B681B0EB1
:1053180003F00F0306E06D4BD3F8F4301B041B0EAB
:1053280003F00F036A4A52F823307B6300F0BEBFD4
:1053380000237B6300F0BABF00237B6300F0B6BF95
:105348003B6BB3F5804F08D107F124031846FFF7EC
:10535800F7F97B6A7B6300F0A9BF00237B6300F049
:10536800A5BFD7E90023511E0B4336D1574BD3F8BD
:10537800E03003F003033B633B6B002B04D1FEF7E3
:105388008DFB786300F092BF3B6B012B04D1FEF7D5
:1053980055FA786300F08ABF4C4B1B6803F48063AE
:1053A800B3F5806F06D13B6B022B03D14A4B7B636D
:1053B80000F07CBF454BD3F8F03003F00203022B1A
:1053C80007D13B6B032B04D14FF400437B6300F000
:1053D8006DBF00237B6300F069BFD7E90023911EEE
:1053E8000B4336D1394BD3F8E03003F00C033B6361
:1053F8003B6B002B04D1FEF73DFB786300F056BFF2
:105408003B6B042B04D1FEF719FA786300F04EBF0A
:105418002E4B1B6803F48063B3F5806F06D13B6B9A
:10542800082B03D12C4B7B6300F040BF274BD3F8EC
:10543800F03003F00203022B07D13B6B0C2B04D195
:105448004FF400437B6300F031BF00237B6300F01F
:105458002DBFD7E90023111F0B433FD11B4BD3F8B6
:10546800E03003F030033B633B6B002B04D1FEF7C5
:1054780001FB786300F01ABF3B6B102B04D1FEF7D9
:10548800DDF9786300F012BF104B1B6803F48063EA
:10549800B3F5806F06D13B6B202B03D10E4B7B639A
:1054A80000F004BF094BD3F8F03003F00203022BDD
:1054B80007D13B6B302B04D14FF400437B6300F0E2
:1054C800F5BE00237B6300F0F1BE00BF000C02466E
:1054D800002F1108006CDC020024F400D7E9002337
:1054E800A2F108010B4336D1A44BD3F8E03003F006
:1054F800C0033B633B6B002B04D1FEF7BBFA786318
:1055080000F0D4BE3B6B402B04D1FEF797F97863CB
:1055180000F0CCBE994B1B6803F48063B3F5806F31
:1055280006D13B6B802B03D1954B7B6300F0BEBE4D
:10553800924BD3F8F03003F00203022B07D13B6BF8
:10554800C02B04D14FF400437B6300F0AFBE0023AF
:105558007B6300F0ABBED7E90023A2F110010B4337
:1055680039D1864BD3F8E03003F440733B633B6B8F
:10557800002B04D1FEF77EFA786300F097BE3B6BF0
:10558800B3F5807F04D1FEF759F9786300F08EBE39
:105598007A4B1B6803F48063B3F5806F07D13B6BCC
:1055A800B3F5007F03D1764B7B6300F07FBE734B6E
:1055B800D3F8F03003F00203022B08D13B6BB3F5AC
:1055C800407F04D14FF400437B6300F06FBE00239B
:1055D8007B6300F06BBED7E90023A2F120010B43E7
:1055E80058D1664BD3F8E83003F007033B633B6BB5
:1055F800002B04D1FEF766FA786300F057BE3B6BC8
:10560800012B04D1FEF71AF9786300F04FBE5B4B0B
:105618001B6803F48063B3F5806F06D13B6B022BE4
:1056280003D1574B7B6300F041BE544BD3F8F030A5
:1056380003F00203022B07D13B6B032B04D14FF479
:1056480000437B6300F032BE4C4B1B6803F0200321
:10565800202B1BD13B6B042B18D1484B9B6803F4C0
:105668000003002B05D0454B9B681B0E03F00F036E
:1056780006E0424BD3F8F4301B041B0E03F00F0373
:10568800404A52F823307B6300F010BE00237B634E
:1056980000F00CBED7E90023A2F500410B4373D1FB
:1056A800364BD3F8E83003F4E0433B633B6BB3F588
:1056B800805F04D1FEF7C2F8786300F0F7BD3B6B5A
:1056C800B3F5005F08D107F118031846FFF792F900
:1056D8003B6A7B6300F0EABD3B6B002B04D1FEF70D
:1056E800AFF9786300F0E2BD3B6BB3F5A04F22D170
:1056F800224B1B6803F02003202B18D11F4B9B68FB
:1057080003F40003002B05D01C4B9B681B0E03F011
:105718000F0306E0194BD3F8F4301B041B0E03F0FB
:105728000F03184A52F823307B6300F0BFBD0023F3
:105738007B6300F0BBBD114B1B6803F40033B3F56A
:10574800003F07D13B6BB3F5405F03D10C4B7B6344
:1057580000F0ACBD094B1B6803F48063B3F5806FA0
:1057680007D13B6BB3F5804F03D1054B7B6300F04A
:105778009DBD00237B6300F099BD00BF000C02466D
:105788000024F400002F1108D7E90023A2F5803186
:105798000B4358D1AD4BD3F8E43003F007033B6318
:1057A8003B6B042B4BD801A252F823F0ED5710089D
:1057B800C9571008DB571008F75710080158100888
:1057C80007F124031846FEF7BBFF7B6A7B6300F0F2
:1057D8006DBD07F10C031846FFF766FA3B697B635A
:1057E80000F064BDFEF72CF9786300F05FBD4BF65E
:1057F80080337B6300F05ABD944B1B6803F0200391
:10580800202B18D1914B9B6803F40003002B05D083
:105818008E4B9B681B0E03F00F0306E08B4BD3F8EF
:10582800F4301B041B0E03F00F03894A52F823308F
:105838007B6300F03BBD00237B6300F037BD002392
:105848007B6300F033BDD7E90023A2F500310B4399
:1058580067D17E4BD3F8E83003F4E0233B633B6B1E
:10586800B3F5802F36D03B6BB3F5802F55D83B6B03
:10587800B3F5403F29D03B6BB3F5403F4DD83B6B68
:10588800B3F5003F13D03B6BB3F5003F45D83B6BF6
:10589800002B15D03B6BB3F5803F3ED107F12403B5
:1058A8001846FEF74DFF7B6A7B6300F0FFBC07F1EB
:1058B8000C031846FFF7F8F93B697B6300F0F6BC68
:1058C800FEF7BEF8786300F0F1BC4BF680337B63DB
:1058D80000F0ECBC5D4B1B6803F02003202B18D1B3
:1058E8005A4B9B6803F40003002B05D0574B9B6869
:1058F8001B0E03F00F0306E0544BD3F8F4301B04DF
:105908001B0E03F00F03524A52F823307B6300F05A
:10591800CDBC00237B6300F0C9BC00237B6300F08F
:10592800C5BCD7E90023A2F140010B434CD1474B3A
:10593800D3F8E03003F440633B633B6B002B04D1A6
:10594800FEF798F8786300F0B1BC3B6BB3F5806F55
:1059580004D1FDF773FF786300F0A8BC3B4B1B68CC
:1059680003F48063B3F5806F07D13B6BB3F5006F29
:1059780003D1384B7B6300F099BC344B1B6803F0B0
:105988002003202B1CD13B6BB3F5406F18D12F4B54
:105998009B6803F40003002B05D02C4B9B681B0E5F
:1059A80003F00F0306E0294BD3F8F4301B041B0E59
:1059B80003F00F03264A52F823307B6300F076BCCD
:1059C80000237B6300F072BCD7E90023A2F18001B9
:1059D8000B4352D11D4BD3F8E03003F440533B63E3
:1059E8003B6B002B04D1FEF745F8786300F05EBCF2
:1059F8003B6BB3F5805F04D1FDF720FF786300F0BF
:105A080055BC124B1B6803F48063B3F5806F07D154
:105A18003B6BB3F5005F03D10E4B7B6300F046BCD4
:105A28000A4B1B6803F02003202B22D13B6BB3F5F4
:105A3800405F1ED1054B9B6803F40003002B0BD07D
:105A4800024B9B681B0E03F00F030CE0000C024690
:105A5800002F11080024F400A14BD3F8F4301B04E4
:105A68001B0E03F00F039F4A52F823307B6300F0AC
:105A78001DBC00237B6300F019BCD7E90023A2F505
:105A880080710B4351D1964BD3F8E83003F0C00333
:105A98003B633B6BC02B24D03B6BC02B42D83B6B8A
:105AA800802B0DD03B6B802B3CD83B6B002B03D05D
:105AB8003B6B402B11D035E0FEF704F87863F5E333
:105AC800874B1B6803F48063B3F5806F02D1864B64
